:020000040000fa
:080000000002040000000000f2
:020000040000fa
:10040000cf9120000e9f27000e0188000000000001
:100410000c000700a045210001002000110007008a
:10042000000020000000e000020032000000020096
:1004300000000000f6140200000000000040da0096
:100440000000fe004440a900000020000000e00081
:100450000300320000002000a00188004440a800f2
:100460000000060091018800800078000000eb0089
:1004700015003700e280400032a0b4009101ba00bc
:10048000e280400032a0b4009102ba00e280400055
:1004900032a0b4000002eb00472bde00f507b200eb
:1004a000602ce10004003a000059eb008301e900f0
:1004b000fdff3e00040037006128e100010032002a
:1004c0000082eb00040007001101ba000200e00006
:1004d000e8ff3a00000006003159ba008301e90044
:1004e0000c0032002159ba008301e90008003200f3
:1004f0000400e00003003a00e280400032a0b400b3
:10050000f5ff370011d9ba008301e900faff3a007c
:100510008100e800e180400032a0b4000000060045
:100520000040da000000fe006900e1000400350030
:100530006d00e100030034000002b1000100320050
:1005400000000500100005001004b1000700350090
:100550009001b100040034007000b10003003500c8
:100560009001b10001003c001000050000000500f2
:10057000800078001106b100030035009101b10040
:1005800001003c000050a10000000600020ab90072
:10059000001bb9000200b800810042008100430046
:1005a00000000600e4874700889fbe008a9fbe00c7
:1005b0008c9fbe008e1f7800000578000107780030
:1005c000820578000000eb00e0e18b000100e00014
:1005d000010032008a0878000a047800b8447800e4
:1005e0000900fb00d0ff07000000e000020032001d
:1005f00008057800f8ff3700d0c2b30080cf540060
:1006000005003a00984478000a84e80010c0b3005e
:1006100090f79f00070037000041eb0092f79f0022
:10062000b0c2b30080cf540002003a009844780072
:100630000a84e80000c3b30080cf540017003a00da
:1006400008057800ba4478000b00e0000200320090
:10065000f08f550009003a0080c7b30080cf5400e6
:100660000300320080c5b30080cf540007003a0079
:100670009a4478000885e8000b0120006066b80005
:100680000040eb0080f79f00100037000b00e000f7
:10069000faff3a008b002000f8ff37000b00e00063
:1006a00003003a0008057800ab002000f3ff370094
:1006b00008057800f1ff370020022000e0e18b0000
:1006c0000205780012c0b300240037000904fb00c3
:1006d000080078009cff07000000e00005003200e1
:1006e00008007800a2ff070091ccb300014440004d
:1006f0000500370001fd2f0001004400e90f500004
:1007000015003e0001c444000800fb008b0f5000a0
:1007100011003d006159b9000c00be009bff0700ad
:100720000801fb00cf91de000000410081804900fc
:100730000a01e800800f5600818f5e00deff3e0058
:100740009a4478000205780012c0b30082f79f0037
:100750000006be00ddff37000041eb000e00e000a8
:10076000030032000ff097000004e00004003a009c
:100770009e00780000c3b300914f100001003a00c2
:100780000a0fe900e14f510003003a000086eb0038
:100790008086eb00050037001ff197000204e0009f
:1007a0000200320060061600e0861e000c00be004b
:1007b0004f0778004f06be004f05be004f04be0035
:1007c0004f00b10000000600889fbe008a9fbe0057
:1007d0008c1f7800800578000105780002067800fb
:1007e0000000eb00e0e18b000b0478000100370013
:1007f0000804e800984478000900fb004aff07005d
:100800000000e000faff3a00d0c2b30080cf5400ed
:100810000500320000c0e90080cf54000200320021
:1008200080447800010037000804e8000c017800db
:100830008a007800080078005aff07000001be0017
:100840009a0f540001003a000b0d78009a8f550062
:1008500003003a00e00f5100e08f59000f003a000a
:10086000b0c2b30080cf540004003a00e00f510042
:10087000e08f590015003d0008003700d0c2b300da
:1008800080cf540011003a00000020000100280031
:10089000800f5100818f59000a003600200220008d
:1008a000e0e18b0002002000030028006b404000c4
:1008b00080cf540005003200f2ff2f00f3ff270025
:1008c0000200370060011100e08119000200be0043
:1008d0004f0678004f05be004f04be000000060022
:020000040000fa
:0200000401f009
:04000c00f9ff0000f8
:020000040000fa
:0200000401f009
:04001000ffff0000ee
:020000040000fa
:0200000401f009
:040014007fff00006a
:020000040000fa
:0200000401f009
:04001c00feff0000e3
:020000040000fa
:1000080090020000900200009002000090020000a0
:100018009002000090020000900200009002000090
:10002800900200009002000090020000420b0000c5
:10003800ba0a00009002000090020000221400009a
:100048009002000090020000900200004e0b000099
:100058009002000090020000dc0a000090020000fc
:100068009002000090020000900200009002000040
:100078009002000090020000900200009002000030
:10008800f20a0000900200009002000090020000b6
:100098009002000090020000900200009002000010
:1000a8009002000090020000900200009002000000
:1000b800200b000090020000900200009002000057
:1000c80090020000900200009002000090020000e0
:1000d80090020000900200009002000090020000d0
:1000e80090020000900200009002000090020000c0
:1000f80090020000900200009002000090020000b0
:10010800900200009002000090020000900200009f
:10011800900200009002000090020000900200008f
:1001280090020000320b00003a0b00009002000021
:10013800900200009002000090020000900200006f
:10014800900200009002000090020000900200005f
:10015800900200009002000090020000900200004f
:10016800900200009002000090020000900200003f
:10017800900200009002000090020000900200002f
:10018800900200009002000090020000900200001f
:10019800900200009002000090020000900200000f
:1001a80090020000900200009002000090020000ff
:1001b80090020000900200009002000090020000ef
:1001c80090020000900200009002000090020000df
:1001d80090020000900200009002000090020000cf
:1001e80090020000900200009002000090020000bf
:0801f8009002000090020000db
:020000040000fa
:10020800900200009002000090020000900200009e
:10021800900200009002000090020000900200008e
:10022800900200009002000090020000420b0000c3
:10023800ba0a000090020000900200002214000098
:100248009002000090020000900200004e0b000097
:100258009002000090020000dc0a000090020000fa
:10026800900200009002000090020000900200003e
:10027800900200009002000090020000900200002e
:10028800f20a0000900200009002000090020000b4
:10029800900200009002000090020000900200000e
:1002a80090020000900200009002000090020000fe
:1002b800200b000090020000900200009002000055
:1002c80090020000900200009002000090020000de
:1002d80090020000900200009002000090020000ce
:1002e80090020000900200009002000090020000be
:1002f80090020000900200009002000090020000ae
:10030800900200009002000090020000900200009d
:10031800900200009002000090020000900200008d
:1003280090020000320b00003a0b0000900200001f
:10033800900200009002000090020000900200006d
:10034800900200009002000090020000900200005d
:10035800900200009002000090020000900200004d
:10036800900200009002000090020000900200003d
:10037800900200009002000090020000900200002d
:10038800900200009002000090020000900200001d
:10039800900200009002000090020000900200000d
:1003a80090020000900200009002000090020000fd
:1003b80090020000900200009002000090020000ed
:1003c80090020000900200009002000090020000dd
:1003d80090020000900200009002000090020000cd
:1003e80090020000900200009002000090020000bd
:0803f8009002000090020000d9
:020000040000fa
:1008e0000200fa000000eb00000f78000000eb00af
:1008f000000f7800110037001e01780001e8270082
:1009000000c2b30000f178001e0078000208200049
:100910000001410001e8270000c2b30000f17800a7
:100920001e007800020820000001410001e82700b5
:1009300000c2b30000f178001e0fe800f0072000ad
:100940009e0f1000ecff340001e8270010c3b30035
:100950008048780001f0270020c3b3008048780069
:1009600001f8270030c3b300804878000080fa0007
:10097000000006000000fa00c6c2a900c122a900ba
:10098000c6e2a900c8e2a800c322a900c8c2a90003
:100990000080fa00000006000000fa00113220007a
:1009a00091407800c0cfb30000c0600021e3b700e1
:1009b00020c3bf007f40600001c4b300014070004d
:1009c00020e3b7002043a8002143a8002343a80048
:1009d0003132200091407800c0cfb30000c06000e9
:1009e00023e3b70023c3bf007f40600023e3b700c9
:1009f00025e3a900f0c3b30024e3b7002183a900d5
:100a0000213220009140780030ccb30000c060005b
:100a1000c1c2b3000140700022e3b70021332000bf
:100a20009140780080cfb30000c060000004a000b7
:100a300032e3b7000000eb00701988003003a80013
:100a40003023a8003043a8003063a8003083a800fa
:100a500030a3a8003103a8003123a8003143a80027
:100a60003183a80031a3a80031c3a8000080eb00a7
:100a7000601988000080eb00501988002c03a90041
:100a80002c23a9002c43a9002c63a9002c83a900c6
:100a90002ca3a9002d03a9002d23a9002d43a900f3
:100aa0002d83a9002da3a9002dc3a90085a0a9000d
:100ab00095a0a90021e3a8000080fa00000006002c
:100ac0000000fa0013e1a9002111200091407800f4
:100ad000f0ccb30000c0600012e1b7001221a90001
:100ae0000000eb005008880000f421007008880026
:100af0008500a9009500a90013e1a8000080fa0074
:100b0000000006000000fa0005e1a9000421a90088
:100b100004c1a900411020009140780000c3b30037
:100b200000c0700004e1b7000000eb00000888007e
:100b300060c1200010088800510a20009140780010
:100b4000f0c8b30000c060000044a000a5e0b700fa
:100b50008460a9009460a80005e1a8000080fa0064
:100b6000000006000000fa0011e1a90001112000b8
:100b700091407800f0ccb30000c0600001c2b30027
:100b80000140700010e1b7001021a90010c1a900b8
:100b90000000eb00300888000080eb00600888004f
:100ba000710a200091407800f0c8b30000c06000d6
:100bb0000044a000a7e0b70084e0a90094e0a800ea
:100bc00011e1a8000080fa00000006000000fa0011
:100bd0003002a900012320009140780090cfb3009b
:100be00000c0600030e2b70030a2a9003062a90066
:100bf00050012000c011880033a2a90033e2a900ef
:100c000032c2bf00f043b20032e2b70031e2a800c6
:100c10003342a8008c40a9009c40a8000080fa0044
:100c2000000006000000fa002002a90001222000b6
:100c30009140780090cfb30000c0600020e2b70080
:100c400020a2a9002062a900a00220004011880073
:100c500023a2a90023e2a90022c2bf00f043b200f0
:100c600022e2b7008580a9009580a9008560a900cf
:100c70009560a80021e2a8002342a9008c20a900c9
:100c80009c20a8000080fa00000006000400fa0082
:100c90000000eb00604288000000eb00704288001a
:100ca0000000eb00804288000000eb0090428800ca
:100cb0000000eb00a04288000000eb00b04288007a
:100cc0000000eb00c04288000000eb00d04288002a
:100cd0000000eb00e04288000000eb00f0428800da
:100ce0000000eb00004388000000eb001043880088
:100cf0000000eb00100798000000eb00000f7800e8
:100d00000000eb0010079800210037000000eb0006
:100d1000000f7800180037009e0190001e00900020
:100d200080004000c0842000008040001001780056
:100d30001e00900080004000c08c20000080400019
:100d4000100078009e007800000040000100400084
:100d50008000400000c027000080400010007800a4
:100d60000001410083804100c084200000804000d9
:100d7000020878001e0fe800100020009e0f1000ef
:100d8000e5ff36001e0090000000e8001007980004
:100d90001e009000eb0f5000dcff36008042800008
:100da0008000d10090448000008040000000d1000d
:100db00020478800704280008000d100a04480005d
:100dc000008040000000d100304788006042800071
:100dd0008000d100b0448000008040000000d100bd
:100de00040478800e04280008000d100c04480007d
:100df000008040000000d10050478800c0428000c1
:100e00008000d100d0448000008040000000d1006c
:100e100060478800d04280008000d100e04480001c
:100e2000008040000000d10070478800b042800080
:100e30008000d100f0448000008040000000d1001c
:100e400080478800a04280008000d10000458000db
:100e5000008040000000d100904788009042800050
:100e60008000d10010458000008040000000d100cb
:100e7000a0478800104380008000d10040458000da
:100e8000008040000000d100b0478800f0428000a0
:100e90008000d10030458000008040000000d1007b
:100ea000d0478800004380008000d10020458000aa
:100eb000008040000000d100c0478800f0af2f0044
:100ec00000ec8b0021d827002047800080087800a4
:100ed00041d82700304780008008780061d827007b
:100ee000404780008008780081d827005047800064
:100ef00080087800a1d8270060478000800878002b
:100f0000c1d827007047800080087800e1d827000a
:100f1000804780008008780001d927009047800032
:100f20008008780021d92700a04780008008780039
:100f300041d92700b04780008008780061d9270098
:100f4000d04780008008780081d92700c047800002
:100f500080087800a1d927000000eb008008780005
:100f6000c1d927000000eb0080087800e1d92700f4
:100f70000000eb008008780001da27000000eb0099
:100f80008008780021da27000000eb008008780054
:100f900041da27000000eb008008780061da2700c2
:100fa0000000eb008008780081da27000000eb00e9
:100fb00080087800a1da2700a0a02000800878002f
:100fc000204780009044880030478000a04488007b
:100fd00040478000b044880050478000c0448800eb
:100fe00060478000d044880070478000e04488005b
:100ff00080478000f04488009047800000458800ca
:10100000a047800010458800b04780004045880018
:10101000d047800030458800c047800020458800c8
:101020000080fa00000006000400fa000000eb0057
:10103000604288000000eb00704288000000eb0076
:10104000804288000000eb00904288000000eb0026
:10105000a04288000000eb00b04288000000eb00d6
:10106000c04288000000eb00d04288000000eb0086
:10107000e04288000000eb00f04288000000eb0036
:10108000004388000000eb00104388000000eb00e4
:10109000100798000000eb00000f78000000eb0044
:1010a00010079800210037000000eb00000f7800c7
:1010b000180037009e0190001e0090008000400044
:1010c000c084200000804000100178001e009000c5
:1010d00080004000c08c200000804000100078009c
:1010e0009e007800000040000100400080004000a9
:1010f00000a027000080400010007800000141009f
:1011000083804100c08420000080400002087800f5
:101110001e0fe800100020009e0f1000e5ff3600b3
:101120001e0090000000e800100798001e009000cc
:10113000eb0f5000dcff3600804280008000d100c1
:1011400090448000008040000000d10020478800cb
:10115000704280008000d100a044800000804000e8
:101160000000d10030478800604280008000d1003c
:10117000b0448000008040000000d100404788005b
:10118000e04280008000d100c04480000080400028
:101190000000d10050478800c04280008000d1008c
:1011a000d0448000008040000000d10060478800eb
:1011b000d04280008000d100e044800000804000e8
:1011c0000000d10070478800b04280008000d1004c
:1011d000f0448000008040000000d100804788007b
:1011e000a04280008000d1000045800000804000c7
:1011f0000000d10090478800904280008000d1001c
:1012000010458000008040000000d100a047880009
:10121000104380008000d1004045800000804000e5
:101220000000d100b0478800f04280008000d1006b
:1012300030458000008040000000d100d047880089
:10124000004380008000d1002045800000804000e5
:101250000000d100c0478800f0af2f0000ec8b00e9
:1012600021d82700204780008008780041d8270037
:10127000304780008008780061d827004047800010
:101280008008780081d827005047800080087800c7
:10129000a1d827006047800080087800c1d82700c7
:1012a0007047800080087800e1d8270080478000e0
:1012b0008008780001d927009047800080087800d6
:1012c00021d92700a04780008008780041d9270055
:1012d000b04780008008780061d92700d04780009f
:1012e0008008780081d92700c047800080087800f6
:1012f000a1d927000000eb0080087800c1d92700a1
:101300000000eb0080087800e1d927000000eb0026
:101310008008780001da27000000eb0080087800e0
:1013200021da27000000eb008008780041da27006e
:101330000000eb008008780061da27000000eb0075
:101340008008780081da27000000eb008008780030
:10135000a1da2700a0a020008008780020478000a4
:101360009044880030478000a044880040478000b7
:10137000b044880050478000c04488006047800027
:10138000d044880070478000e04488008047800097
:10139000f04488009047800000458800a047800006
:1013a00010458800b047800040458800d047800045
:1013b00030458800c0478000204588000080fa0042
:1013c000000006000200fa00000f7800f001200083
:1013d000101c880040232000401c88000138200099
:1013e00091407800f0ccb30000c0600080e3b7000b
:1013f00080c3bf003040b30080e3b70081a3a800e2
:1014000081c3a8001e007800501c880000582000ee
:10141000201c880000602000301c88008480a90007
:101420009480a8000080fa00000006000000fa0086
:10143000e0012000701c880060232000a01c8800b0
:10144000c138200091407800f0ccb30000c06000ab
:101450008ce3b700c138200091407800c0cfb300c2
:1014600000c060000014a0008ce3b7008da3a900a9
:101470008dc3a90070002000b01c8800004420002b
:10148000801c880000452000901c880085c0a900b1
:1014900095c0a8008de3a8000080fa0000000600b7
:1014a0000000fa008139200091407800f0ccb300b0
:1014b00000c0600001c2b3000140700098e3b700b3
:1014c0008139200091407800c0cfb30000c0600097
:1014d0000014a00098e3b70000302000001d880031
:1014e00070012000101d8800d0002000d01c880052
:1014f00000402000e01c880000202000f01c880034
:101500008700a9009700a80099e3a8000080fa00ce
:10151000000006000000fa00b0002000301d880026
:1015200060222000601d8800413a20009140780030
:10153000f0ccb30000c06000a4e3b700a4c3bf00b8
:101540003040b300a4e3b700a5a3a900a5c3a80039
:10155000f00f2000701d880000682000401d8800ea
:101560008880a9009880a900a5e3a9000080fa005e
:1015700000000600801f78000000fa000040800094
:10158000e10f500003003a0000582000201c8800a2
:101590000200370000602000301c880000408000fe
:1015a0000000a200004088008480a9000080fa00aa
:1015b0004f00780000400600801f78000000fa000d
:1015c00081e3a80083e3a800104080000000a2008f
:1015d0001040880085c0a9000080fa004f00780004
:1015e000004006003600f800809fbe00829fbe00cb
:1015f000849fbe00869fbe000000fa000048800065
:101600000000e00002003a00a0fd070001003700e2
:1016100085fe0700004880000000a2000048880006
:101620008700a9000080fa004f03be004f02be00f1
:101630004f01be004f00be003600f900004006001a
:10164000801f78000000fa00204080000000a20007
:10165000204088008880a9000080fa004f007800b0
:10166000004006000000fa008c20a9000080fa006b
:10167000004006000000fa008c40a9000080fa003b
:10168000004006000000fa0081e3a80083e3a80000
:101690008460a9000080fa00004006003600f800cf
:1016a000809fbe00829fbe00849fbe00869fbe00ba
:1016b0000000fa00404880000000e00026003a00e8
:1016c000204880008000780000e8270080804000eb
:1016d0003011800080487800204880000000e80039
:1016e00020488800204880008000780000e827001b
:1016f0000000e900008040009040780040c2b30044
:1017000080cf500004003a001000200020488800dc
:1017100010002000304888002048800080007800b9
:1017200000e827000000e900008040001040780039
:10173000ea4f500008003a0030488000e10f5000a6
:1017400005003a0010002000204888004048800032
:101750000000e8004048880040488000e10f500049
:1017600026003a00204880008000780000f0270022
:101770008080400030118000804878002048800040
:101780000000e800204888002048800080007800a1
:1017900000f027000000e900008040009040780041
:1017a00040c2b30080cf500004003a001000200077
:1017b0002048880010002000304888002048800021
:1017c0008000780000f027000000e9000080400061
:1017d00010407800ea4f500008003a00304880007e
:1017e000e10f500005003a0010002000204888005a
:1017f000404880000000e8004048880040488000e1
:10180000e20f500026003a00204880008000780057
:1018100000f8270080804000301180008048780068
:10182000204880000000e800204888002048800010
:101830008000780000f827000000e90000804000e8
:101840009040780040c2b30080cf500004003a00be
:101850001000200020488800100020003048880038
:10186000204880008000780000f827000000e90090
:101870000080400010407800ea4f500008003a0015
:1018800030488000e10f500005003a0010002000b1
:10189000204888000000eb0040488800080007004e
:1018a0008560a9000080fa004f03be004f02be0011
:1018b0004f01be004f00be003600f9000040060098
:1018c0000400fa0030e827009040780070c4b300ac
:1018d00080cf50000e003a0040e82700904078008a
:1018e00070c4b30080cf500009003a0050e82700d0
:1018f0009040780010c4b30080cf500004003a003c
:1019000000e827002043880010002000904888004d
:1019100030f027009040780070c4b30080cf5000b2
:101920000e003a0040f027009040780070c4b300e9
:1019300080cf500009003a0050f027009040780016
:1019400010c4b30080cf500004003a0000f027001c
:1019500020438800100020009048880030f82700bd
:101960009040780070c4b30080cf50000e003a0061
:1019700040f827009040780070c4b30080cf50003a
:1019800009003a0050f827009040780010c4b300d6
:1019900080cf500004003a0000f827002043880060
:1019a000100020009048880030e827009040780020
:1019b00020c5b30080cf50000e003a0040e8270059
:1019c00090407800d0c4b30080cf500009003a00a6
:1019d00050e827009040780030c4b30080cf50001a
:1019e00004003a0000e8270030438800100020007f
:1019f000a048880030f027009040780020c5b30050
:101a000080cf50000e003a0040f027009040780050
:101a1000d0c4b30080cf500009003a0050f0270036
:101a20009040780030c4b30080cf500004003a00ea
:101a300000f027003043880010002000a0488800f4
:101a400030f827009040780020c5b30080cf5000c8
:101a50000e003a0040f8270090407800d0c4b30050
:101a600080cf500009003a0050f8270090407800dd
:101a700030c4b30080cf500004003a0000f82700c3
:101a80003043880010002000a048880030e827007c
:101a90009040780060c5b30080cf50000e003a003f
:101aa00040e827009040780040c5b30080cf500048
:101ab00009003a0050e827009040780070c4b30055
:101ac00080cf500004003a0000e82700404388001f
:101ad00010002000b048880030f0270090407800c7
:101ae00060c5b30080cf50000e003a0040f02700e0
:101af0009040780040c5b30080cf500009003a0004
:101b000050f027009040780070c4b30080cf5000a0
:101b100004003a0000f02700404388001000200035
:101b2000b048880030f827009040780060c5b300c6
:101b300080cf50000e003a0040f827009040780017
:101b400040c5b30080cf500009003a0050f827008c
:101b50009040780070c4b30080cf500004003a0079
:101b600000f827004043880010002000b04888009b
:101b70000000eb00100798000000eb00000f780059
:101b800090488000e10f50002e023a00110037000b
:101b9000214380001e0090000080400090407800ab
:101ba000c0c2b30080cf500007003a001e0078008a
:101bb00080004000a0862000008040009e00900031
:101bc000010878001e0fe8001e0090000000e800e9
:101bd00010079800214380001e0090000080400004
:101be00090407800a0c2b30080cf5000e8ff3a00d8
:101bf0005043800080007800204380000080400037
:101c00000080e800104078000000fb006f006000da
:101c100010468800504380008000780020438000f8
:101c2000008040000000e800104078000000fb0049
:101c30006f0060006a00b9008000780010468000e4
:101c400000804000104688005043800080007800eb
:101c50002043800000804000640040001040780075
:101c60000000fb006f0060002046880050438000a9
:101c70008000780020438000008040006300400026
:101c8000104078000000fb006f0060006a00b9009f
:101c900080007800204680000080400020468800b8
:101ca0005043800080007800204380000080400086
:101cb00066004000104078000000fb006f006000ec
:101cc0003046880050438000800078002043800028
:101cd0000080400065004000104078000000fb00dc
:101ce0006f0060006a00b900800078003046800014
:101cf000008040003046880060438000800078000b
:101d000020438000008040000080e8001040780000
:101d10000000fb006f006000d0408800604380003e
:101d20008000780020438000008040000000e80030
:101d3000104078000000fb006f0060006a00b900ee
:101d400080007800d040800000804000d0408800b3
:101d500060438000800078002043800000804000c5
:101d600064004000104078000000fb006f0060003d
:101d7000e0408800604380008000780020438000bd
:101d80000080400063004000104078000000fb002d
:101d90006f0060006a00b90080007800e0408000b9
:101da00000804000e04088006043800080007800b0
:101db000204380000080400069004000104078000f
:101dc0000000fb006f00600040428800604380001c
:101dd00080007800204380000080400068004000c0
:101de000104078000000fb006f0060006a00b9003e
:101df000800078004042800000804000404288001f
:101e00006043800080007800204380000080400014
:101e100067004000104078000000fb00ef00600009
:101e2000400620000088b900800078004042800011
:101e300000804000404288006043800080007800bd
:101e40002043800000804000660040001040780081
:101e50000000fb00ef006000803e20000088b90019
:101e600080007800404280000080400040428800ae
:101e70008043800080007800204380000080400084
:101e800063004000104078000000fb006f0060001d
:101e9000f04088008043800080007800204380006c
:101ea000008040000080e800104078000000fb0047
:101eb0006f0060006a00b90080007800f040800088
:101ec00000804000f040880080438000800078005f
:101ed00020438000008040000000e80010407800af
:101ee0000000fb00ef006000400620000088b90001
:101ef00080007800f040800000804000f0408800c2
:101f000080438000800078002043800000804000f3
:101f100065004000104078000000fb006f0060008a
:101f200000418800804380008000780020438000ca
:101f30000080400064004000104078000000fb007a
:101f40006f0060006a00b9008000780000418000e6
:101f500000804000004188008043800080007800bd
:101f600020438000008040006a004000104078005c
:101f70000000fb006f00600050428800804380003a
:101f8000800078002043800000804000690040000d
:101f9000104078000000fb006f0060006a00b9008c
:101fa000800078005042800000804000504288004d
:101fb0008043800080007800204380000080400043
:101fc00068004000104078000000fb00ef00600057
:101fd000400620000088b900800078005042800050
:101fe00000804000504288008043800080007800dc
:101ff00020438000008040006700400010407800cf
:102000000000fb00ef006000803e20000088b90067
:1020100080007800504280000080400050428800dc
:1020200070438000800078002043800000804000e2
:102030000000e800104078000000fb00104188001c
:1020400090438000800078002043800000804000a2
:102050000000e800104078000000fb0020418800ec
:102060000000eb00604888000000eb00704888002a
:102070000000eb0080488800d04380000000e800aa
:102080007048880017003700824880002143800094
:1020900070488000008040009040780060882000f8
:1020a00000004100014878008148800060882000dd
:1020b0000080400090407800e0c2b30080cf500024
:1020c00002003a0080488000604888008048800014
:1020d0000000e80080488800704880000000e800a8
:1020e00070488800e143800070488000808f500075
:1020f000e5ff3c0060488000e40f50003c003a00df
:10210000d0438000800078002043800000804000a1
:1021100064004000104078000000fb006f00600089
:1021200030418800d0438000800078002043800048
:102130000080400063004000104078000000fb0079
:102140006f0060006a00b9008000780030418000b4
:102150000080400030418800d0438000800078003b
:1021600020438000008040000080e800104078009c
:102170000000fb00ef006000400620000088b9006e
:1021800080007800304180000080400030418800ad
:10219000d043800080007800204380000080400011
:1021a0000000e800104078000000fb00ef00600035
:1021b000803e20000088b900800078003041800017
:1021c000008040003041880022438000d1438000dd
:1021d0006048800000804000000041000080e8006e
:1021e000104078000000fb006f0060004041880054
:1021f00060488000e30f50002f003a00d043800079
:102200008000780020438000008040006300400090
:10221000104078000000fb006f0060003041880033
:10222000d043800080007800204380000080400080
:102230000080e800104078000000fb006f006000a4
:102240006a00b900800078003041800000804000c2
:1022500030418800d0438000800078002043800017
:10226000008040000000e800104078000000fb0003
:10227000ef006000400620000088b9008000780070
:1022800030418000008040003041880022438000bf
:10229000d143800060488000008040000000410081
:1022a0000080e800104078000000fb006f00600034
:1022b000404188003a00370060488000e20f50003b
:1022c00021003a00d0438000800078002043800045
:1022d000008040000080e800104078000000fb0013
:1022e0006f00600030418800d0438000800078009b
:1022f00020438000008040000000e800104078008b
:102300000000fb006f0060006a00b90080007800e8
:10231000304180000080400030418800224380002e
:10232000d1438000604880000080400000004100f0
:102330000080e800104078000000fb006f006000a3
:10234000404188001600370060488000e10f5000cf
:1023500013003a00d04380008000780020438000c2
:10236000008040000000e800104078000000fb0002
:102370006f0060003041880022438000d14380001c
:102380006048800000804000000041000080e800bc
:10239000104078000000fb006f00600040418800a2
:1023a000a04380008000780020438000008040002f
:1023b0000000e800104078000000fb005041880059
:1023c000b0438000800078002043800000804000ff
:1023d0000000e800104078000000fb006f00600083
:1023e00060418800b0438000800078002043800076
:1023f000008040000080e80090407800c0c2b30038
:1024000080cf50000d003200b04380008000780083
:1024100020438000008040000000e8001040780069
:102420000000fb006f0060006a00b90080007800c7
:102430006041800000804000604188000000eb00a7
:1024400090488800a0488000e10f5000ba003a0090
:102450000000eb00100798000000eb00000f780070
:1024600011003700314380001e00900000804000c2
:1024700090407800c0c2b30080cf500007003a00ff
:102480001e00780080004000a086200000804000f0
:102490009e009000010878001e0fe8001e009000ca
:1024a0000000e80010079800314380001e009000f3
:1024b0000080400090407800a0c2b30080cf500060
:1024c000e8ff3a000000eb00604888000000eb00e5
:1024d000704888000000eb0080488800b04380000e
:1024e0000000e8007048880018003700824880002b
:1024f00031438000704880000080400090407800a8
:102500006088200000004100014878008148800078
:10251000608820000080400090407800e0c2b30056
:1025200080cf500003003a00804880000000e8009f
:1025300060488800804880000000e80080488800eb
:10254000704880000000e80070488800c1438000a7
:1025500070488000808f5000e4ff3c000001eb00d9
:10256000e1022000608820000ef80700704188001a
:102570000000eb00604888000000eb007048880015
:102580000000eb0080488800c04380000000e800a5
:10259000704888001800370082488000314380006e
:1025a000704880000080400090407800c088200083
:1025b000000041000148780081488000c088200068
:1025c0000080400090407800e0c2b30080cf50000f
:1025d00003003a00804880000000e800604888005e
:1025e000804880000000e800804888007048800033
:1025f0000000e80070488800d143800070488000e7
:10260000808f5000e4ff3c00804880000000e9001b
:10261000804888000001eb00e1022000c088200013
:10262000e0f7070090418800d043800080007800e8
:1026300030438000008040000080e80010407800b7
:102640000000fb006f006000b0418800d0438000b4
:102650008000780030438000008040000000e800e7
:10266000104078000000fb006f0060006a00b900b5
:1026700080007800b041800000804000b0418800b8
:10268000d04380008000780030438000008040000c
:1026900064004000104078000000fb006f00600004
:1026a000c0418800d0438000800078003043800023
:1026b0000080400063004000104078000000fb00f4
:1026c0006f0060006a00b90080007800c04180009f
:1026d00000804000c0418800d04380008000780026
:1026e00030438000008040006600400010407800c9
:1026f0000000fb006f006000d0418800d0438000e4
:102700008000780030438000008040006500400079
:10271000104078000000fb006f0060006a00b90004
:1027200080007800d041800000804000d0418800c7
:102730000000eb00a0488800f0bf2f0000f08b00e5
:1027400021e02700d04080008008780041e0270089
:10275000e04080008008780061e02700404280006f
:102760008008780081e02700104180008008780010
:10277000a1e02700f040800080087800c1e0270039
:102780000041800080087800e1e02700504280008e
:102790008008780001e1270020418000800878004f
:1027a00021e12700304180008008780041e12700c6
:1027b000404180008008780061e12700704180007e
:1027c0008008780081e1270080418000800878003f
:1027d000a1e127009041800080087800c1e1270036
:1027e000a041800080087800e1e12700b04180002e
:1027f0008008780001e22700c0418000800878004e
:1028000021e22700d04180008008780041e22700c3
:10281000104680008008780061e227002046800092
:102820008008780081e22700304680008008780028
:10283000a1e22700d0a02000800878000080fa00e4
:1028400000000600801f78000000fa0011e1a900d6
:10285000304080000000e00005003a000000eb007e
:1028600030088800c8c2a800100020006008880056
:1028700030408000e10f500005003a000000eb00fe
:1028800030088800c8c2a9000080eb0060088800fa
:10289000304080000000a2003040880084e0a900a1
:1028a00094e0a80011e1a8000080fa004f00780031
:0428b00000400600de
:020000040000fa
:1028b4001a0900000200000002000000e8fd000008
:1028c40092080000880000000200000000000000e0
:1028d40000000000000000000000000000000000f4
:1028e40000000000030002000001000000000000de
:1028f40000000000000000000000000000000000d4
:1029040000000000000000000000000000000000c3
:1029140000000000000000000000000001000200b0
:1029240000030000040005000008000009000a007c
:10293400000c00000d000e0000000000000000006c
:102944000000000000000000000000000000000083
:102954000000000000000000000100000000000072
:10296400000000000100000000000000002c000036
:102974000000000000000000000000000000000053
:1029840000000000000800009200000000000000a9
:10299400007c00003c00000000000000007a000001
:1029a4003c00000000000000807d000000010000e9
:1029b40000000000407c0000100000000000000047
:1029c400507c00001000000000000000807e000029
:1029d40080010000000000003c7c000002000000b8
:0829e4000000000000000000eb
:020000040000fa
:1029ec000000fa00417420009140780000ceb30042
:1029fc0000c0600044e7b70090022000303a880025
:102a0c0044c7bf00f043b20044e7b70042c7bf0061
:102a1c000042b2000004e000fcff3200d2f70700d5
:102a2c00daf707009bfa070033f807004af80700ab
:102a3c0020f80700a7f7070077f8070060f80700f1
:102a4c00b00220005cfa0700affa0700ffff370066
:00000001FF
